:020000040800F2
:1000000000500020690700080106000807060008E4
:100010000D0600081306000819060008000000007D
:100020000000000000000000000000001F060008A3
:100030002B060008000000003706000843060008F1
:10004000B1070008B1070008B1070008B1070008B0
:10005000B1070008B1070008B1070008B1070008A0
:10006000B1070008B1070008B1070008B107000890
:10007000B1070008B1070008B1070008B107000880
:10008000B1070008B1070008B1070008B107000870
:1000900051060008B1070008B1070008B1070008C1
:1000A000B1070008B1070008B1070008B107000850
:1000B00065060008B1070008B1070008B10700088D
:1000C000B1070008B1070008B1070008B107000830
:1000D000B1070008B1070008B1070008B107000820
:1000E000B1070008B1070008B107000800000000D0
:1000F0000000000000000000000000000000000000
:0C01000000000000000000005FF808F1A3
:10010C0010B5054C237833B9044B13B10448AFF345
:10011C0000800123237010BD10000020000000009F
:10012C00D82A000808B5034B1BB103490348AFF3A9
:10013C00008008BD0000000014000020D82A000830
:10014C0080B500AF174B184A1A60164B12225A6032
:10015C00144B00229A60134B0022DA60114B4FF4BF
:10016C0080321A610F4B00225A610E4B00221A7614
:10017C000C4B00225A760B4B00229A76094B00222C
:10018C00DA76084B00221A77064B00225A7705487C
:10019C0000F06CFB0346002B01D000F0F3F900BF1C
:1001AC0080BD00BF2C0000200064004080B588B0EA
:1001BC0000AF786007F1100300221A605A609A6051
:1001CC00DA607B681B68204A934239D11F4BDB698C
:1001DC001E4A43F00073D3611C4BDB6903F00073C0
:1001EC00FB60FB68194B9B69184A43F0040393614D
:1001FC00164B9B6903F00403BB60BB684FF40063B0
:10020C003B6100237B610023BB6107F1100319469E
:10021C000F4801F097FA4FF480533B6102237B6146
:10022C000323FB6107F110031946094801F08AFA10
:10023C0000220021142001F04EFA142001F067FA7C
:10024C0000BF2037BD4680BD006400400010024056
:10025C000008014080B588B000AF07F11003002200
:10026C001A605A609A60DA602D4B9B692C4A43F0F5
:10027C00100393612A4B9B6903F01003FB60FB682E
:10028C00274B9B69264A43F020039361244B9B69BF
:10029C0003F02003BB60BB68214B9B69204A43F0F1
:1002AC00080393611E4B9B6903F008037B607B681A
:1002BC001B4B9B691A4A43F004039361184B9B69CF
:1002CC0003F004033B603B6801224FF400511548D6
:1002DC0001F0BCFB00220121134801F0B7FB4FF4E5
:1002EC0000533B6101237B610023BB610223FB6153
:1002FC0007F1100319460B4801F024FA01233B6166
:10030C0001237B610023BB610223FB6107F1100316
:10031C001946054801F016FA00BF2037BD4680BDCE
:10032C000010024000100140000C014080B500AFED
:10033C0000F03AFA00F08AF8FFF78CFFFFF700FFA5
:10034C0000F09AF900F0FAF8334800F053FC02215F
:10035C00314800F0A1FE314801F0E2FF304B02229F
:10036C001A612F4B00229A602D4B0022DA602C4B25
:10037C0010221A602B4B05221A702A4BC8225A7075
:10038C00294B1B78012B0DD1284B1A78284B1A704E
:10039C00264B5A78274B1A70234B00221A70264B87
:1003AC0001221A70254B1B78002B0CD1204B1A788C
:1003BC00224B1A700121224801F060FB4FF40051CE
:1003CC00204801F05BFB1B4B1B78002BD8D0144B47
:1003DC0002221A61124B00229A60114B0022DA6041
:1003EC000F4B10221A60124B1B780133DAB20D4BF3
:1003FC001A700C4BC8225A70134B0A4A084906480B
:10040C0000F03CFC104B1B681946034800F010FD33
:10041C00094B00221A70B3E72C000020A00000202A
:10042C0070000020880000209C000020900000201C
:10043C00000000209F0000209D0000209E00002056
:10044C00000C0140001001409800002080B590B0D5
:10045C0000AF07F1180328220021184602F02EFBEA
:10046C003B1D00221A605A609A60DA601A610123FF
:10047C00BB614FF48033FB6100233B620123BB6201
:10048C0002237B634FF48033BB634FF4E013FB63B5
:10049C0007F11803184601F00BFB0346002B01D0A3
:1004AC0000F070F80F237B600223BB600023FB601D
:1004BC004FF480633B6100237B613B1D0221184696
:1004CC0001F078FD0346002B01D000F05BF800BF73
:1004DC004037BD4680BD000080B483B000AF78606B
:1004EC00074B1B78002B05D0054B1B78013BDAB270
:1004FC00034B1A7000BF0C37BD4680BC704700BF61
:10050C009E00002080B582B000AF7860084B094A8D
:10051C000021786800F0AFFC064B1B69022B02D15E
:10052C00054B01221A7000BF0837BD4680BD00BFC5
:10053C0090000020540000209C00002080B58AB060
:10054C0000AF01233B620A237B6100233B6142F233
:10055C0060433B6000237B6042F26043BB6000233E
:10056C00FB600023BB610123FB6100237B623B46E4
:10057C001946034800F075FA00BF2837BD4680BD08
:10058C002C00002080B400AF72B600BFFEE7000064
:10059C0080B485B000AF154B9B69144A43F001033E
:1005AC009361124B9B6903F00103BB60BB680F4B5B
:1005BC00DB690E4A43F08053D3610C4BDB6903F0CB
:1005CC0080537B607B680A4B5B68FB60FB6823F0A5
:1005DC00E063FB60FB6843F00073FB60044AFB685C
:1005EC00536000BF1437BD4680BC704700100240FA
:1005FC000000014080B400AFFEE780B400AFFEE71E
:10060C0080B400AFFEE780B400AFFEE780B400AF6B
:10061C00FEE780B400AF00BFBD4680BC704780B41D
:10062C0000AF00BFBD4680BC704780B400AF00BFB8
:10063C00BD4680BC704780B500AF00F0FBF800BF32
:10064C0080BD000080B500AF024800F04AFD00BF3D
:10065C0080BD00BF2C00002080B500AF024801F027
:10066C00B1FE00BF80BD00BFA000002080B400AF71
:10067C0000BFBD4680BC704780B586B000AF07F1A7
:10068C00080300221A605A609A60DA603B46002226
:10069C001A605A601E4B4FF080421A601C4B41F698
:1006AC003F725A601A4B00229A60194B40F2E732A3
:1006BC00DA60174B00221A61154B00229A6114481C
:1006CC0001F0DEFD0346002B01D0FFF75BFF4FF47A
:1006DC008053BB6007F1080319460D4801F07AFFFF
:1006EC000346002B01D0FFF74DFF00233B60002396
:1006FC007B603B461946064802F04CF90346002B3A
:10070C0001D0FFF73FFF00BF1837BD4680BD00BFCB
:10071C00A000002080B584B000AF78607B681B68B7
:10072C00B3F1804F13D10C4BDB690B4A43F001033F
:10073C00D361094BDB6903F00103FB60FB6800220A
:10074C0000211C2000F0C7FF1C2000F0E0FF00BFC0
:10075C001037BD4680BD00BF001002400C480D494B
:10076C000D4A002302E0D458C4500433C4188C4200
:10077C00F9D30A4A0A4C002301E013600432A24266
:10078C00FBD3FFF773FF02F075F9FFF7CFFD70474E
:10079C000000002010000020182B00081000002082
:1007AC00EC000020FEE7000080B500AF084B1B6892
:1007BC00074A43F010031360032000F081FF0F2061
:1007CC0000F008F8FFF7E4FE0023184680BD00BFD8
:1007DC000020024080B582B000AF7860124B1A68DE
:1007EC00124B1B7819464FF47A73B3FBF1F3B2FB3F
:1007FC00F3F3184600F099FF0346002B01D00123B8
:10080C000EE07B680F2B0AD8002279684FF0FF307E
:10081C0000F061FF064A7B681360002300E00123AF
:10082C0018460837BD4680BD040000200C0000208F
:10083C000800002080B400AF054B1B781A46054B0E
:10084C001B681344034A136000BFBD4680BC70474D
:10085C000C000020E800002080B400AF024B1B68A5
:10086C001846BD4680BC7047E800002080B584B0B7
:10087C0000AF78607B68002B01D10123EDE07B6831
:10088C0093F82030DBB2002B02D17868FFF78EFC96
:10089C007B681B681A687B681B6842F001021A604F
:1008AC00FFF7DAFFF86012E0FFF7D6FF0246FB68AD
:1008BC00D31A0A2B0BD97B685B6A43F400327B6832
:1008CC005A627B68052283F820200123C5E07B68EF
:1008DC001B685B6803F00103002BE5D07B681B6889
:1008EC001A687B681B6822F002021A60FFF7B4FFDB
:1008FC00F86012E0FFF7B0FF0246FB68D31A0A2B30
:10090C000BD97B685B6A43F400327B685A627B6864
:10091C00052283F8202001239FE07B681B685B681D
:10092C0003F00203002BE5D17B681B7E012B08D161
:10093C007B681B681A687B681B6842F080021A602F
:10094C0007E07B681B681A687B681B6822F08002D2
:10095C001A607B685B7E012B08D17B681B681A6868
:10096C007B681B6842F040021A6007E07B681B68DA
:10097C001A687B681B6822F040021A607B689B7EB9
:10098C00012B08D17B681B681A687B681B6842F0D6
:10099C0020021A6007E07B681B681A687B681B687A
:1009AC0022F020021A607B68DB7E012B08D17B6869
:1009BC001B681A687B681B6822F010021A6007E03B
:1009CC007B681B681A687B681B6842F010021A600F
:1009DC007B681B7F012B08D17B681B681A687B68BE
:1009EC001B6842F008021A6007E07B681B681A68F3
:1009FC007B681B6822F008021A607B685B7F012B06
:100A0C0008D17B681B681A687B681B6842F004027B
:100A1C001A6007E07B681B681A687B681B6822F009
:100A2C0004021A607B689A687B68DB681A437B68EF
:100A3C001B691A437B685B6942EA03017B685B684C
:100A4C005A1E7B681B680A43DA617B6800225A6273
:100A5C007B68012283F82020002318461037BD46FE
:100A6C0080BD80B487B000AF786039607B681B684C
:100A7C007B617B6893F82030FB74FB7C012B03D0EB
:100A8C00FB7C022B40F0AA807B69D3F8003243F048
:100A9C0001027B69C3F800223B685B6903F01F030A
:100AAC00012202FA03F3FB607B69D3F81C22FB687A
:100ABC00DB431A407B69C3F81C223B68DB69002BC3
:100ACC0023D17B69D3F80C22FB68DB431A407B698A
:100ADC00C3F80C223B68DB6819043B685B689BB26B
:100AEC003A68526919437B69483243F832103B68C3
:100AFC009B6819043B681B689AB23B685B690A43A4
:100B0C0079694833DB000B445A603B68DB69012B85
:100B1C0022D17B69D3F80C22FB681A437B69C3F89A
:100B2C000C223B681B6819043B685B689BB23A68F3
:100B3C00526919437B69483243F832103B689B6811
:100B4C0019043B68DB689AB23B685B690A437969B4
:100B5C004833DB000B445A603B689B69002B09D17E
:100B6C007B69D3F80422FB68DB431A407B69C3F82A
:100B7C00042207E07B69D3F80422FB681A437B69E3
:100B8C00C3F804223B681B69002B09D17B69D3F89D
:100B9C001422FB68DB431A407B69C3F8142207E07C
:100BAC007B69D3F81422FB681A437B69C3F81422BF
:100BBC003B681B6A012B07D17B69D3F81C22FB68AD
:100BCC001A437B69C3F81C227B69D3F8003223F0EB
:100BDC0001027B69C3F80022002306E07B685B6A94
:100BEC0043F480227B685A62012318461C37BD46A9
:100BFC0080BC704780B584B000AF78607B6893F898
:100C0C002030DBB2012B2ED17B68022283F820200E
:100C1C007B681B681A687B681B6822F001021A60EB
:100C2C00FFF71AFEF86012E0FFF716FE0246FB68AB
:100C3C00D31A0A2B0BD97B685B6A43F400327B68AE
:100C4C005A627B68052283F82020012312E07B681E
:100C5C001B685B6803F00103002BE5D17B68002265
:100C6C005A62002306E07B685B6A43F400227B68CF
:100C7C005A62012318461037BD4680BD80B489B036
:100C8C0000AFF860B9607A603B60FB6893F8203085
:100C9C00FB77FB681B689B68BB61FB7F012B03D058
:100CAC00FB7F022B40F0B880BB6903F08063002B04
:100CBC000AD1BB6903F00063002B05D1BB6903F0BB
:100CCC008053002B00F0A080BB691B0E03F00303C4
:100CDC007B617B69022B07D9FB685B6A43F40002DA
:100CEC00FB685A6201239EE001227B699A403B68B3
:100CFC001A60BB689B68002B0DD1BB681B685A053A
:100D0C00BB68DB68F96809681A437B6918331B01F7
:100D1C000B441A600FE0BB685B68DA00BB689B6829
:100D2C001A43BB68DB68F96809681A437B69183396
:100D3C001B010B441A60FB681968BB681A697B6954
:100D4C0018331B010B4404331A60BB681B7D012B49
:100D5C0011D1FB681A687B6918331B0113440433E7
:100D6C001B68FA68116843F480727B6918331B01A5
:100D7C000B4404331A607B6807331B781A067B68B4
:100D8C0006331B781B041A437B6805331B781B0244
:100D9C0013437A68043212781046FA68116843EAF1
:100DAC0000027B691B010B4403F5C6731A607B6858
:100DBC0003331B781A067B6802331B781B041A4317
:100DCC007B6801331B781B0213437A681278104638
:100DDC00FA68116843EA00027B691B010B4403F5B6
:100DEC00C4731A60FB681A687B6918331B011344BF
:100DFC001B68FA68116843F001027B6918331B0108
:100E0C000B441A6000230EE0FB685B6A43F400128B
:100E1C00FB685A62012306E0FB685B6A43F480229C
:100E2C00FB685A62012318462437BD4680BC7047C4
:100E3C0080B485B000AF786039600023FB607B68BC
:100E4C0093F82030FB72FB7A012B02D0FB7A022B39
:100E5C000BD17B681B689A683B689B061A403B6801
:100E6C009B069A4201D00123FB60FB68184614379D
:100E7C00BD4680BC704780B487B000AFF860B960E5
:100E8C007A603B60FB6893F82030FB75FB7D012B8F
:100E9C0003D0FB7D022B40F0F380BB68002B0ED1FE
:100EAC00FB681B68DB6803F00303002B16D1FB689F
:100EBC005B6A43F40012FB685A620123E7E0FB68AB
:100ECC001B681B6903F00303002B07D1FB685B6AEB
:100EDC0043F40012FB685A620123D8E0FB681A68DD
:100EEC00BB681B331B0113441B6803F004027B68B3
:100EFC009A607B689B68002B0CD1FB681A68BB68F6
:100F0C001B331B0113441B685B0DC3F30A027B6884
:100F1C001A600BE0FB681A68BB681B331B01134497
:100F2C001B68DB0823F060427B685A60FB681A6818
:100F3C00BB681B331B0113441B6803F002027B6864
:100F4C00DA60FB681A68BB681B331B01134404335B
:100F5C001B6803F00F027B681A61FB681A68BB6898
:100F6C001B331B01134404331B681B0ADAB27B6866
:100F7C009A61FB681A68BB681B331B01134404336A
:100F8C001B681B0C9AB27B685A61FB681A68BB68B9
:100F9C001B01134403F5DC731B68DAB23B681A704F
:100FAC00FB681A68BB681B01134403F5DC731B68F0
:100FBC001A0A3B680133D2B21A70FB681A68BB6814
:100FCC001B01134403F5DC731B681A0C3B680233DA
:100FDC00D2B21A70FB681A68BB681B01134403F584
:100FEC00DC731B681A0E3B680333D2B21A70FB68B1
:100FFC001A68BB681B01134403F5DE731A683B685F
:10100C000433D2B21A70FB681A68BB681B01134414
:10101C0003F5DE731B681A0A3B680533D2B21A70EB
:10102C00FB681A68BB681B01134403F5DE731B686D
:10103C001A0C3B680633D2B21A70FB681A68BB688C
:10104C001B01134403F5DE731B681A0E3B68073350
:10105C00D2B21A70BB68002B08D1FB681B68DA6827
:10106C00FB681B6842F02002DA6007E0FB681B6833
:10107C001A69FB681B6842F020021A61002306E023
:10108C00FB685B6A43F48022FB685A6201231846B2
:10109C001C37BD4680BC704780B485B000AF78600B
:1010AC0039607B6893F82030FB73FB7B012B02D0FB
:1010BC00FB7B022B09D17B681B6859697B681B6819
:1010CC003A680A435A61002306E07B685B6A43F482
:1010DC0080227B685A62012318461437BD4680BCB7
:1010EC00704780B58AB000AF786000237B627B6864
:1010FC001B685B693B627B681B685B68FB617B6898
:10110C001B689B68BB617B681B68DB687B617B68C9
:10111C001B681B693B617B681B689B69FB603B6AB6
:10112C0003F00103002B7CD0BB6903F00103002BFF
:10113C0023D07B681B6801229A60BB6903F0020311
:10114C00002B03D0786800F083F916E0BB6903F03C
:10115C000403002B04D07B6A43F400637B620CE035
:10116C00BB6903F00803002B04D07B6A43F4805363
:10117C007B6202E0786800F086F9BB6903F4807347
:10118C00002B24D07B681B684FF480729A60BB697B
:10119C0003F40073002B03D0786800F062F916E0BA
:1011AC00BB6903F48063002B04D07B6A43F40053C7
:1011BC007B620CE0BB6903F40063002B04D07B6AF8
:1011CC0043F480437B6202E0786800F065F9BB6908
:1011DC0003F48033002B24D07B681B684FF48032DF
:1011EC009A60BB6903F40033002B03D0786800F0DD
:1011FC0041F916E0BB6903F48023002B04D07B6A11
:10120C0043F400437B620CE0BB6903F40023002B26
:10121C0004D07B6A43F480337B6202E0786800F090
:10122C0044F93B6A03F00803002B0CD07B6903F0F4
:10123C001003002B07D07B6A43F400737B627B683E
:10124C001B681022DA603B6A03F00403002B0BD0FE
:10125C007B6903F00803002B06D07B681B6808220F
:10126C00DA60786800F02AF93B6A03F00203002B7D
:10127C0009D07B681B68DB6803F00303002B02D0EA
:10128C007868FFF73FF93B6A03F04003002B0CD062
:10129C003B6903F01003002B07D07B6A43F4806397
:1012AC007B627B681B6810221A613B6A03F0200387
:1012BC00002B0BD03B6903F00803002B06D07B6896
:1012CC001B6808221A61786800F00AF93B6A03F07F
:1012DC001003002B09D07B681B681B6903F0030308
:1012EC00002B02D0786800F0F2F83B6A03F400336C
:1012FC00002B0BD0FB6903F01003002B06D07B688E
:10130C001B6810225A60786800F0F3F83B6A03F40B
:10131C008033002B0BD0FB6903F00803002B06D0A5
:10132C007B681B6808225A60786800F0EBF83B6A0F
:10133C0003F40043002B7BD0FB6903F00403002B68
:10134C0072D03B6A03F48073002B08D0FB6803F067
:10135C000103002B03D07B6A43F001037B623B6AE1
:10136C0003F40073002B08D0FB6803F00203002B7E
:10137C0003D07B6A43F002037B623B6A03F4806315
:10138C00002B08D0FB6803F00403002B03D07B6A0E
:10139C0043F004037B623B6A03F40063002B43D0ED
:1013AC00FB6803F07003002B3ED0FB6803F0700366
:1013BC00602B2BD0602B2ED8502B22D0502B2AD820
:1013CC00402B19D0402B26D8302B10D0302B22D8C4
:1013DC00102B02D0202B05D01DE07B6A43F00803B4
:1013EC007B6219E07B6A43F010037B6214E07B6A3A
:1013FC0043F020037B620FE07B6A43F040037B6287
:10140C000AE07B6A43F080037B6205E07B6A43F46D
:10141C0080737B6200E000BF7B681B689A697B6805
:10142C001B6822F070029A617B681B6804225A6068
:10143C007B6A002B08D07B685A6A7B6A1A437B68EC
:10144C005A62786800F067F800BF2837BD4680BD47
:10145C0080B483B000AF786000BF0C37BD4680BC51
:10146C00704780B483B000AF786000BF0C37BD46C6
:10147C0080BC704780B483B000AF786000BF0C377D
:10148C00BD4680BC704780B483B000AF786000BFAD
:10149C000C37BD4680BC704780B483B000AF786019
:1014AC0000BF0C37BD4680BC704780B483B000AF22
:1014BC00786000BF0C37BD4680BC704780B483B0E9
:1014CC0000AF786000BF0C37BD4680BC704780B45D
:1014DC0083B000AF786000BF0C37BD4680BC70474E
:1014EC0080B483B000AF786000BF0C37BD4680BCC1
:1014FC00704780B483B000AF786000BF0C37BD4636
:10150C0080BC704780B483B000AF786000BF0C37EC
:10151C00BD4680BC704780B483B000AF786000BF1C
:10152C000C37BD4680BC704780B485B000AF786086
:10153C007B6803F00703FB600C4BDB68BB60BA688D
:10154C004FF6FF031340BB60FB681A02BB681343E2
:10155C0043F0BF6343F40033BB60044ABB68D36001
:10156C0000BF1437BD4680BC704700BF00ED00E0E3
:10157C0080B400AF044BDB681B0A03F0070318466A
:10158C00BD4680BC704700BF00ED00E080B483B066
:10159C0000AF0346FB7197F90730002B0BDBFB798F
:1015AC0003F01F02064997F907305B09012000FA86
:1015BC0002F241F8232000BF0C37BD4680BC7047B7
:1015CC0000E100E080B483B000AF03463960FB71EA
:1015DC0097F90730002B0ADB3B68DAB20C4997F914
:1015EC0007301201D2B20B4483F800230AE03B68A7
:1015FC00DAB20849FB7903F00F03043B1201D2B2B3
:10160C000B441A7600BF0C37BD4680BC704700BF38
:10161C0000E100E000ED00E080B489B000AFF860BC
:10162C00B9607A60FB6803F00703FB61FB69C3F1E7
:10163C000703042B28BF0423BB61FB690433062B6F
:10164C0002D9FB69033B00E000237B614FF0FF32C2
:10165C00BB6902FA03F3DA43BB681A407B699A4010
:10166C004FF0FF317B6901FA03F3D9437B680B40E0
:10167C00134318462437BD4680BC704780B582B0F2
:10168C0000AF78607B68013BB3F1807F01D301230D
:10169C000FE00A4A7B68013B53600F214FF0FF308B
:1016AC00FFF790FF054B00229A60044B07221A604B
:1016BC00002318460837BD4680BD00BF10E000E08F
:1016CC0080B582B000AF78607868FFF72DFF00BF5F
:1016DC000837BD4680BD80B586B000AF0346B96003
:1016EC007A60FB7300237B61FFF742FF78617A68B5
:1016FC00B9687869FFF790FF024697F90F301146E9
:10170C001846FFF75FFF00BF1837BD4680BD80B598
:10171C0082B000AF0346FB7197F907301846FFF70C
:10172C0035FF00BF0837BD4680BD80B582B000AF25
:10173C0078607868FFF7A2FF034618460837BD4665
:10174C0080BD000080B48BB000AF7860396000239E
:10175C007B6200233B6269E101227B6A02FA03F39C
:10176C00FB613B681B68FA691340BB61BA69FB6992
:10177C009A4240F058813B685B689A4A93425ED02B
:10178C00984A934275D8984A934258D0964A9342B5
:10179C006FD8964A934252D0944A934269D8944A4D
:1017AC0093424CD0924A934263D8924A934246D089
:1017BC00904A93425DD8122B2AD8122B59D801A2E9
:1017CC0052F823F04B1800082518000837180008A9
:1017DC00791800087F1800087F1800087F18000887
:1017EC007F1800087F1800087F1800087F18000871
:1017FC007F1800087F1800087F1800087F18000861
:10180C007F1800087F1800082D18000841180008E0
:10181C00794A934213D02CE03B68DB683B6229E0A9
:10182C003B68DB6804333B6224E03B68DB680833CD
:10183C003B621FE03B68DB680C333B621AE03B68A1
:10184C009B68002B02D104233B6213E03B689B682E
:10185C00012B05D108233B627B68FA691A6109E008
:10186C0008233B627B68FA695A6103E000233B6200
:10187C0000E000BFBB69FF2B01D87B6801E07B68EF
:10188C0004337B61BB69FF2B02D87B6A9B0002E0AF
:10189C007B6A083B9B003B617B691A680F213B69A3
:1018AC0001FA03F3DB431A40396A3B6901FA03F38B
:1018BC001A437B691A603B685B6803F08053002B0A
:1018CC0000F0B1804D4B9B694C4A43F0010393618E
:1018DC004A4B9B6903F00103BB60BB68484A7B6AB7
:1018EC009B08023352F82330FB607B6A03F003033E
:1018FC009B000F2202FA03F3DB43FA681340FB60F0
:10190C007B68404A934213D07B683F4A93420DD088
:10191C007B683E4A934207D07B683D4A934201D193
:10192C00032306E0042304E0022302E0012300E089
:10193C0000237A6A02F0030292009340FA68134380
:10194C00FB602F497B6A9B080233FA6841F823201D
:10195C003B685B6803F48033002B06D02D4B1A6870
:10196C002C49BB6913430B6006E02A4B1A68BB6910
:10197C00DB43284913400B603B685B6803F400337E
:10198C00002B06D0234B5A682249BB6913434B608A
:10199C0006E0204B5A68BB69DB431E4913404B6081
:1019AC003B685B6803F48013002B06D0194B9A68D4
:1019BC001849BB6913438B6006E0164B9A68BB69E8
:1019CC00DB43144913408B603B685B6803F40013E2
:1019DC00002B21D00F4BDA680E49BB691343CB6047
:1019EC0021E000BF00003210000031100000221076
:1019FC000000211000001210000011100010024015
:101A0C000000014000080140000C014000100140A2
:101A1C0000140140000401400B4BDA68BB69DB4346
:101A2C0009491340CB607B6A01337B623B681A68BF
:101A3C007B6A22FA03F3002B7FF48EAE00BF00BF4B
:101A4C002C37BD4680BC70470004014080B483B085
:101A5C0000AF78600B467B8013467B707B78002B45
:101A6C0003D07A887B681A6103E07B881A047B6850
:101A7C001A6100BF0C37BD4680BC704780B485B07E
:101A8C0000AF78600B467B807B68DB68FB607A88F4
:101A9C00FB6813401A04FB68D9437B880B401A433C
:101AAC007B681A6100BF1437BD4680BC70470000CC
:101ABC0080B586B000AF78607B68002B01D1012324
:101ACC0072E27B681B6803F00103002B00F0878037
:101ADC00924B5B6803F00C03042B0CD08F4B5B68B0
:101AEC0003F00C03082B12D18C4B5B6803F480338E
:101AFC00B3F5803F0BD1894B1B6803F40033002BEB
:101B0C006CD07B685B68002B68D101234CE27B684E
:101B1C005B68B3F5803F06D1804B1B687F4A43F46A
:101B2C00803313602EE07B685B68002B0CD17B4B01
:101B3C001B687A4A23F480331360784B1B68774A0E
:101B4C0023F4802313601DE07B685B68B3F5A02F42
:101B5C000CD1724B1B68714A43F4802313606F4B9A
:101B6C001B686E4A43F4803313600BE06B4B1B68AD
:101B7C006A4A23F480331360684B1B68674A23F46A
:101B8C00802313607B685B68002B13D0FEF764FE28
:101B9C00386108E0FEF760FE02463B69D31A642BFD
:101BAC0001D9032300E25D4B1B6803F40033002BC7
:101BBC00F0D014E0FEF750FE386108E0FEF74CFE62
:101BCC0002463B69D31A642B01D90323ECE1534B36
:101BDC001B6803F40033002BF0D100E000BF7B68DE
:101BEC001B6803F00203002B63D04C4B5B6803F0C3
:101BFC000C03002B0BD0494B5B6803F00C03082B38
:101C0C001CD1464B5B6803F48033002B16D1434B3D
:101C1C001B6803F00203002B05D07B681B69012BAA
:101C2C0001D00123C0E13D4B1B6823F0F8027B6817
:101C3C005B69DB00394913430B603AE07B681B6935
:101C4C00002B20D0364B01221A60FEF705FE3861BE
:101C5C0008E0FEF701FE02463B69D31A022B01D9BC
:101C6C000323A1E12D4B1B6803F00203002BF0D0E2
:101C7C002A4B1B6823F0F8027B685B69DB00274961
:101C8C0013430B6015E0264B00221A60FEF7E4FDAF
:101C9C00386108E0FEF7E0FD02463B69D31A022BDF
:101CAC0001D9032380E11D4B1B6803F00203002BB9
:101CBC00F0D17B681B6803F00803002B3AD07B68DB
:101CCC009B69002B19D0174B01221A60FEF7C4FD3B
:101CDC00386108E0FEF7C0FD02463B69D31A022BBF
:101CEC0001D9032360E10D4B5B6A03F00203002B67
:101CFC00F0D0012000F0A6FA1CE00A4B00221A607A
:101D0C00FEF7AAFD38610FE0FEF7A6FD02463B691F
:101D1C00D31A022B08D9032346E100BF001002405E
:101D2C000000424280044242924B5B6A03F0020381
:101D3C00002BE9D17B681B6803F00403002B00F037
:101D4C00A6800023FB758B4BDB6903F08053002BC3
:101D5C000DD1884BDB69874A43F08053D361854BA7
:101D6C00DB6903F08053BB60BB680123FB75824BBE
:101D7C001B6803F48073002B18D17F4B1B687E4AC1
:101D8C0043F480731360FEF767FD386108E0FEF7DB
:101D9C0063FD02463B69D31A642B01D9032303E18B
:101DAC00754B1B6803F48073002BF0D07B68DB68E9
:101DBC00012B06D16F4B1B6A6E4A43F00103136271
:101DCC002DE07B68DB68002B0CD16A4B1B6A694ADF
:101DDC0023F001031362674B1B6A664A23F004036A
:101DEC0013621CE07B68DB68052B0CD1614B1B6A12
:101DFC00604A43F0040313625E4B1B6A5D4A43F076
:101E0C00010313620BE05B4B1B6A5A4A23F001037C
:101E1C001362584B1B6A574A23F0040313627B6806
:101E2C00DB68002B15D0FEF717FD38610AE0FEF7D2
:101E3C0013FD02463B69D31A41F28832934201D911
:101E4C000323B1E04B4B1B6A03F00203002BEED0D3
:101E5C0014E0FEF701FD38610AE0FEF7FDFC0246D6
:101E6C003B69D31A41F28832934201D903239BE098
:101E7C00404B1B6A03F00203002BEED1FB7D012BC0
:101E8C0005D13C4BDB693B4A23F08053D3617B6823
:101E9C00DB69002B00F08780364B5B6803F00C038A
:101EAC00082B61D07B68DB69022B46D1334B0022B7
:101EBC001A60FEF7D1FC386108E0FEF7CDFC024653
:101ECC003B69D31A022B01D903236DE0294B1B6804
:101EDC0003F00073002BF0D17B681B6AB3F5803FD5
:101EEC0008D1244B5B6823F400327B689B68214942
:101EFC0013434B601F4B5B6823F474127B68196AA5
:101F0C007B685B6A0B431B4913434B601B4B0122E1
:101F1C001A60FEF7A1FC386108E0FEF79DFC024652
:101F2C003B69D31A022B01D903233DE0114B1B68EB
:101F3C0003F00073002BF0D035E0104B00221A6038
:101F4C00FEF78AFC386108E0FEF786FC02463B6926
:101F5C00D31A022B01D9032326E0064B1B6803F08E
:101F6C000073002BF0D11EE07B68DB69012B07D1DD
:101F7C00012319E000100240007000406000424252
:101F8C000B4B5B68FB60FB6803F480327B681B6A5D
:101F9C009A4206D1FB6803F470127B685B6A9A4222
:101FAC0001D0012300E0002318461837BD4680BD40
:101FBC000010024080B584B000AF786039607B6857
:101FCC00002B01D10123D0E06A4B1B6803F00703FF
:101FDC003A689A4210D9674B1B6823F0070265498F
:101FEC003B6813430B60634B1B6803F007033A68B1
:101FFC009A4201D00123B8E07B681B6803F002030E
:10200C00002B20D07B681B6803F00403002B05D049
:10201C00594B5B68584A43F4E06353607B681B6818
:10202C0003F00803002B05D0534B5B68524A43F472
:10203C0060535360504B5B6823F0F0027B689B68E5
:10204C004D4913434B607B681B6803F00103002B65
:10205C0040D07B685B68012B07D1474B1B6803F4AE
:10206C000033002B15D101237FE07B685B68022BCA
:10207C0007D1414B1B6803F00073002B09D10123DE
:10208C0073E03D4B1B6803F00203002B01D10123CD
:10209C006BE0394B5B6823F003027B685B68364965
:1020AC0013434B60FEF7D8FBF8600AE0FEF7D4FB55
:1020BC000246FB68D31A41F28832934201D90323BA
:1020CC0053E02D4B5B6803F00C027B685B689B0054
:1020DC009A42EBD1274B1B6803F007033A689A42EC
:1020EC0010D2244B1B6823F0070222493B68134390
:1020FC000B60204B1B6803F007033A689A4201D02F
:10210C00012332E07B681B6803F00403002B08D02A
:10211C00194B5B6823F4E0627B68DB681649134358
:10212C004B607B681B6803F00803002B09D0124B33
:10213C005B6823F460527B681B69DB000E49134318
:10214C004B6000F021F802460B4B5B681B0903F057
:10215C000F030A49CB5C22FA03F3094A1360094BBB
:10216C001B681846FEF736FB002318461037BD4691
:10217C0080BD00BF0020024000100240002B000870
:10218C00040000200800002090B48AB000AF294B56
:10219C003C1D0FCB84E80F0040F201233B80002351
:1021AC00FB610023BB6100237B6200237B61002366
:1021BC003B62214B5B68FB61FB6903F00C03042B56
:1021CC0002D0082B03D02BE01C4B3B622BE0FB69AD
:1021DC009B0C03F00F0328333B4413F8243C7B6126
:1021EC00FB6903F48033002B12D0134B5B685B0C40
:1021FC0003F0010328333B4413F8283CBB617B6993
:10220C000E4A03FB02F2BB69B2FBF3F37B6204E000
:10221C007B690B4A02FB03F37B627B6A3B6202E045
:10222C00064B3B6200BF3B6A18462837BD4690BC44
:10223C00704700BFF02A00080010024000127A001C
:10224C0000093D0080B485B000AF78600A4B1B6874
:10225C000A4AA2FB03235B0A7A6802FB03F3FB60C6
:10226C0000BFFB685A1EFA60002BF9D100BF00BFFB
:10227C001437BD4680BC704704000020D34D62105B
:10228C0080B582B000AF78607B68002B01D1012350
:10229C0041E07B6893F83D30DBB2002B06D17B68C4
:1022AC00002283F83C207868FEF734FA7B6802221F
:1022BC0083F83D207B681A687B6804331946104606
:1022CC0000F070FA7B68012283F846207B680122BB
:1022DC0083F83E207B68012283F83F207B68012233
:1022EC0083F840207B68012283F841207B6801221F
:1022FC0083F842207B68012283F843207B6801220B
:10230C0083F844207B68012283F845207B680122F6
:10231C0083F83D20002318460837BD4680BD0000D9
:10232C0080B485B000AF78607B6893F83D30DBB249
:10233C00012B01D001233AE07B68022283F83D2077
:10234C007B681B68DA687B681B6842F00102DA6004
:10235C007B681B68184A93420ED07B681B68B3F1EC
:10236C00804F09D07B681B68144A934204D07B6869
:10237C001B68134A934211D17B681B689B6803F05E
:10238C000703FB60FB68062B10D07B681B681A6880
:10239C007B681B6842F001021A6007E07B681B68CF
:1023AC001A687B681B6842F001021A600023184609
:1023BC001437BD4680BC7047002C0140000400401F
:1023CC000008004080B582B000AF78607B681B6865
:1023DC001B6903F00203022B22D17B681B68DB68AC
:1023EC0003F00203022B1BD17B681B686FF0020207
:1023FC001A617B6801221A777B681B689B6903F062
:10240C000303002B03D0786800F0B1F905E078687D
:10241C0000F0A4F9786800F0B3F97B6800221A7711
:10242C007B681B681B6903F00403042B22D17B68B7
:10243C001B68DB6803F00403042B1BD17B681B684F
:10244C006FF004021A617B6802221A777B681B68A2
:10245C009B6903F44073002B03D0786800F087F974
:10246C0005E0786800F07AF9786800F089F97B6803
:10247C0000221A777B681B681B6903F00803082B82
:10248C0022D17B681B68DB6803F00803082B1BD187
:10249C007B681B686FF008021A617B6804221A774C
:1024AC007B681B68DB6903F00303002B03D078689F
:1024BC0000F05DF905E0786800F050F9786800F0FC
:1024CC005FF97B6800221A777B681B681B6903F035
:1024DC001003102B22D17B681B68DB6803F0100300
:1024EC00102B1BD17B681B686FF010021A617B6884
:1024FC0008221A777B681B68DB6903F44073002B96
:10250C0003D0786800F033F905E0786800F026F91C
:10251C00786800F035F97B6800221A777B681B68B5
:10252C001B6903F00103012B0ED17B681B68DB6870
:10253C0003F00103012B07D17B681B686FF00102CC
:10254C001A617868FDF7C8FF7B681B681B6903F08C
:10255C008003802B0ED17B681B68DB6803F0800343
:10256C00802B07D17B681B686FF080021A6178683A
:10257C0000F077FA7B681B681B6903F04003402B63
:10258C000ED17B681B68DB6803F04003402B07D13E
:10259C007B681B686FF040021A61786800F0F9F8EC
:1025AC007B681B681B6903F02003202B0ED17B6812
:1025BC001B68DB6803F02003202B07D17B681B68AA
:1025CC006FF020021A61786800F042FA00BF0837F9
:1025DC00BD4680BD80B584B000AF786039607B6843
:1025EC0093F83C30012B01D10223B3E07B6801222C
:1025FC0083F83C207B68022283F83D207B681B68B3
:10260C009B68FB60FB6823F07703FB60FB6823F49B
:10261C007F43FB607B681B68FA689A603B681B68A9
:10262C00B3F5005F3ED0B3F5005F00F28780B3F5E1
:10263C00805F00F08580B3F5805F7FD8702B1AD057
:10264C00702B7BD8602B50D0602B77D8502B3CD084
:10265C00502B73D8402B58D0402B6FD8302B64D0D4
:10266C00302B6BD8202B60D0202B67D8002B5CD064
:10267C00102B5AD062E07B6818683B6899683B68FD
:10268C005A683B68DB6800F066F97B681B689B68DE
:10269C00FB60FB6843F07703FB607B681B68FA68A0
:1026AC009A604EE07B6818683B6899683B685A688A
:1026BC003B68DB6800F04FF97B681B689A687B68A5
:1026CC001B6842F480429A603BE07B6818683B6868
:1026DC0059683B68DB681A4600F0C6F87B681B68D3
:1026EC005021184600F01DF92BE07B6818683B68F8
:1026FC0059683B68DB681A4600F0E4F87B681B6895
:10270C006021184600F00DF91BE07B6818683B68E7
:10271C0059683B68DB681A4600F0A6F87B681B68B2
:10272C004021184600F0FDF80BE07B681A683B6806
:10273C001B681946104600F0F4F802E000BF00E0F8
:10274C0000BF7B68012283F83D207B68002283F860
:10275C003C20002318461037BD4680BD80B483B0A2
:10276C0000AF786000BF0C37BD4680BC704780B4AA
:10277C0083B000AF786000BF0C37BD4680BC70479B
:10278C0080B483B000AF786000BF0C37BD4680BC0E
:10279C00704780B483B000AF786000BF0C37BD4683
:1027AC0080BC704780B485B000AF786039607B68BE
:1027BC001B68FB607B68294A93420BD07B68B3F1A2
:1027CC00804F07D07B68264A934203D07B68254A0A
:1027DC00934208D1FB6823F07003FB603B685B6895
:1027EC00FA681343FB607B681C4A93420BD07B68EE
:1027FC00B3F1804F07D07B68194A934203D07B68B2
:10280C00184A934208D1FB6823F44073FB603B6881
:10281C00DB68FA681343FB60FB6823F080023B68BB
:10282C005B691343FB607B68FA681A603B689A68C3
:10283C007B68DA623B681A687B689A627B68074A35
:10284C00934203D13B681A697B681A637B68012247
:10285C005A6100BF1437BD4680BC7047002C014044
:10286C00000400400008004080B487B000AFF8605E
:10287C00B9607A60FB681B6A7B61FB681B6A23F09A
:10288C000102FB681A62FB689B693B613B6923F0A0
:10289C00F0033B617B681B013A6913433B617B6925
:1028AC0023F00A037B617A69BB6813437B61FB6885
:1028BC003A699A61FB687A691A6200BF1C37BD4697
:1028CC0080BC704780B487B000AFF860B9607A60A4
:1028DC00FB681B6A23F01002FB681A62FB689B6999
:1028EC007B61FB681B6A3B617B6923F470437B61F2
:1028FC007B681B037A6913437B613B6923F0A0035C
:10290C003B61BB681B013A6913433B61FB687A6905
:10291C009A61FB683A691A6200BF1C37BD4680BCDD
:10292C00704780B485B000AF786039607B689B6875
:10293C00FB60FB6823F07003FB603A68FB68134391
:10294C0043F00703FB607B68FA689A6000BF14379A
:10295C00BD4680BC704780B487B000AFF860B960EA
:10296C007A603B60FB689B687B617B6923F47F43E7
:10297C007B613B681A027B681A43BB6813437A6914
:10298C0013437B61FB687A699A6000BF1C37BD46B4
:10299C0080BC704780B485B000AF786039607B68CC
:1029AC0093F83C30012B01D1022346E07B680122D5
:1029BC0083F83C207B68022283F83D207B681B68EF
:1029CC005B68FB607B681B689B68BB60FB6823F0E3
:1029DC007003FB603B681B68FA681343FB607B6801
:1029EC001B68FA685A607B681B68164A93420ED0C3
:1029FC007B681B68B3F1804F09D07B681B68124A57
:102A0C00934204D07B681B68104A93420CD1BB687C
:102A1C0023F08003BB603B685B68BA681343BB6000
:102A2C007B681B68BA689A607B68012283F83D203A
:102A3C007B68002283F83C20002318461437BD46DF
:102A4C0080BC7047002C014000040040000800408E
:102A5C0080B483B000AF786000BF0C37BD4680BC3B
:102A6C00704780B483B000AF786000BF0C37BD46B0
:102A7C0080BC704770B500260C4D0D4C641BA41027
:102A8C00A64209D100F022F800260A4D0A4C641B1C
:102A9C00A410A64205D170BD55F8043B98470136E9
:102AAC00EEE755F8043B98470136F2E7102B000887
:102ABC00102B0008102B0008142B000803460244AE
:102ACC00934200D1704703F8011BF9E7F8B500BF3A
:102ADC00F8BC08BC9E467047F8B500BFF8BC08BCF3
:042AEC009E4670474B
:102AF00002030405060708090A0B0C0D0E0F10103F
:102B0000000000000000000001020304060708099D
:042B10003101000887
:042B14000D010008A7
:102B1800050000000024F40010000000010000007F
:04000005080007697F
:00000001FF
